{
  "_format": "hh-sol-artifact-1",
  "contractName": "Voting",
  "sourceName": "contracts/Voting.sol",
  "abi": [
    {
      "inputs": [
        {
          "internalType": "string[]",
          "name": "_candidateNames",
          "type": "string[]"
        },
        {
          "internalType": "uint256",
          "name": "_durationInMinutes",
          "type": "uint256"
        }
      ],
      "stateMutability": "nonpayable",
      "type": "constructor"
    },
    {
      "inputs": [
        {
          "internalType": "string",
          "name": "_name",
          "type": "string"
        }
      ],
      "name": "addCandidate",
      "outputs": [],
      "stateMutability": "nonpayable",
      "type": "function"
    },
    {
      "inputs": [
        {
          "internalType": "uint256",
          "name": "",
          "type": "uint256"
        }
      ],
      "name": "candidates",
      "outputs": [
        {
          "internalType": "string",
          "name": "name",
          "type": "string"
        },
        {
          "internalType": "uint256",
          "name": "voteCount",
          "type": "uint256"
        }
      ],
      "stateMutability": "view",
      "type": "function"
    },
    {
      "inputs": [],
      "name": "getAllCandidates",
      "outputs": [
        {
          "internalType": "string[]",
          "name": "",
          "type": "string[]"
        }
      ],
      "stateMutability": "view",
      "type": "function"
    },
    {
      "inputs": [],
      "name": "getAllVotesOfCandiates",
      "outputs": [
        {
          "components": [
            {
              "internalType": "string",
              "name": "name",
              "type": "string"
            },
            {
              "internalType": "uint256",
              "name": "voteCount",
              "type": "uint256"
            }
          ],
          "internalType": "struct Voting.Candidate[]",
          "name": "",
          "type": "tuple[]"
        }
      ],
      "stateMutability": "view",
      "type": "function"
    },
    {
      "inputs": [],
      "name": "getRemainingTime",
      "outputs": [
        {
          "internalType": "uint256",
          "name": "",
          "type": "uint256"
        }
      ],
      "stateMutability": "view",
      "type": "function"
    },
    {
      "inputs": [],
      "name": "getVotingStatus",
      "outputs": [
        {
          "internalType": "bool",
          "name": "",
          "type": "bool"
        }
      ],
      "stateMutability": "view",
      "type": "function"
    },
    {
      "inputs": [
        {
          "internalType": "uint256",
          "name": "_candidateIndex",
          "type": "uint256"
        }
      ],
      "name": "vote",
      "outputs": [],
      "stateMutability": "nonpayable",
      "type": "function"
    },
    {
      "inputs": [
        {
          "internalType": "address",
          "name": "",
          "type": "address"
        }
      ],
      "name": "voterToCandidate",
      "outputs": [
        {
          "internalType": "uint256",
          "name": "",
          "type": "uint256"
        }
      ],
      "stateMutability": "view",
      "type": "function"
    },
    {
      "inputs": [
        {
          "internalType": "address",
          "name": "_voter",
          "type": "address"
        }
      ],
      "name": "voterVotedFor",
      "outputs": [
        {
          "internalType": "string",
          "name": "",
          "type": "string"
        }
      ],
      "stateMutability": "view",
      "type": "function"
    },
    {
      "inputs": [
        {
          "internalType": "address",
          "name": "",
          "type": "address"
        }
      ],
      "name": "voters",
      "outputs": [
        {
          "internalType": "bool",
          "name": "",
          "type": "bool"
        }
      ],
      "stateMutability": "view",
      "type": "function"
    },
    {
      "inputs": [],
      "name": "votingEnd",
      "outputs": [
        {
          "internalType": "uint256",
          "name": "",
          "type": "uint256"
        }
      ],
      "stateMutability": "view",
      "type": "function"
    },
    {
      "inputs": [],
      "name": "votingStart",
      "outputs": [
        {
          "internalType": "uint256",
          "name": "",
          "type": "uint256"
        }
      ],
      "stateMutability": "view",
      "type": "function"
    }
  ],
  "bytecode": "0x60806040523480156200001157600080fd5b5060405162001ef938038062001ef9833981810160405281019062000037919062000419565b60005b8251811015620000dc57600060405180604001604052808584815181106200006757620000666200047f565b5b60200260200101518152602001600081525090806001815401808255809150506001900390600052602060002090600202016000909190919091506000820151816000019081620000b99190620006ef565b506020820151816001015550508080620000d39062000805565b9150506200003a565b5033600160006101000a81548173ffffffffffffffffffffffffffffffffffffffff021916908373ffffffffffffffffffffffffffffffffffffffff16021790555042600481905550603c8162000134919062000852565b426200014191906200089d565b6005819055505050620008d8565b6000604051905090565b600080fd5b600080fd5b600080fd5b6000601f19601f8301169050919050565b7f4e487b7100000000000000000000000000000000000000000000000000000000600052604160045260246000fd5b620001b38262000168565b810181811067ffffffffffffffff82111715620001d557620001d462000179565b5b80604052505050565b6000620001ea6200014f565b9050620001f88282620001a8565b919050565b600067ffffffffffffffff8211156200021b576200021a62000179565b5b602082029050602081019050919050565b600080fd5b600080fd5b600067ffffffffffffffff82111562000254576200025362000179565b5b6200025f8262000168565b9050602081019050919050565b60005b838110156200028c5780820151818401526020810190506200026f565b60008484015250505050565b6000620002af620002a98462000236565b620001de565b905082815260208101848484011115620002ce57620002cd62000231565b5b620002db8482856200026c565b509392505050565b600082601f830112620002fb57620002fa62000163565b5b81516200030d84826020860162000298565b91505092915050565b60006200032d6200032784620001fd565b620001de565b905080838252602082019050602084028301858111156200035357620003526200022c565b5b835b81811015620003a157805167ffffffffffffffff8111156200037c576200037b62000163565b5b8086016200038b8982620002e3565b8552602085019450505060208101905062000355565b5050509392505050565b600082601f830112620003c357620003c262000163565b5b8151620003d584826020860162000316565b91505092915050565b6000819050919050565b620003f381620003de565b8114620003ff57600080fd5b50565b6000815190506200041381620003e8565b92915050565b6000806040838503121562000433576200043262000159565b5b600083015167ffffffffffffffff8111156200045457620004536200015e565b5b6200046285828601620003ab565b9250506020620004758582860162000402565b9150509250929050565b7f4e487b7100000000000000000000000000000000000000000000000000000000600052603260045260246000fd5b600081519050919050565b7f4e487b7100000000000000000000000000000000000000000000000000000000600052602260045260246000fd5b600060028204905060018216806200050157607f821691505b602082108103620005175762000516620004b9565b5b50919050565b60008190508160005260206000209050919050565b60006020601f8301049050919050565b600082821b905092915050565b600060088302620005817fffffffffffffffffffffffffffffffffffffffffffffffffffffffffffffffff8262000542565b6200058d868362000542565b95508019841693508086168417925050509392505050565b6000819050919050565b6000620005d0620005ca620005c484620003de565b620005a5565b620003de565b9050919050565b6000819050919050565b620005ec83620005af565b62000604620005fb82620005d7565b8484546200054f565b825550505050565b600090565b6200061b6200060c565b62000628818484620005e1565b505050565b5b8181101562000650576200064460008262000611565b6001810190506200062e565b5050565b601f8211156200069f5762000669816200051d565b620006748462000532565b8101602085101562000684578190505b6200069c620006938562000532565b8301826200062d565b50505b505050565b600082821c905092915050565b6000620006c460001984600802620006a4565b1980831691505092915050565b6000620006df8383620006b1565b9150826002028217905092915050565b620006fa82620004ae565b67ffffffffffffffff81111562000716576200071562000179565b5b620007228254620004e8565b6200072f82828562000654565b600060209050601f83116001811462000767576000841562000752578287015190505b6200075e8582620006d1565b865550620007ce565b601f19841662000777866200051d565b60005b82811015620007a1578489015182556001820191506020850194506020810190506200077a565b86831015620007c15784890151620007bd601f891682620006b1565b8355505b6001600288020188555050505b505050505050565b7f4e487b7100000000000000000000000000000000000000000000000000000000600052601160045260246000fd5b60006200081282620003de565b91507fffffffffffffffffffffffffffffffffffffffffffffffffffffffffffffffff8203620008475762000846620007d6565b5b600182019050919050565b60006200085f82620003de565b91506200086c83620003de565b92508282026200087c81620003de565b91508282048414831517620008965762000895620007d6565b5b5092915050565b6000620008aa82620003de565b9150620008b783620003de565b9250828201905080821115620008d257620008d1620007d6565b5b92915050565b61161180620008e86000396000f3fe608060405234801561001057600080fd5b50600436106100b45760003560e01c8063581c281c11610071578063581c281c1461017c57806385a386351461019a578063a3ec138d146101b8578063a567dd75146101e8578063e42a3e4214610218578063efb98bcf14610248576100b4565b80630121b93f146100b9578063101158af146100d55780632e6997fe146100f35780633477ee2e14610111578063462e91ec146101425780634d6bda5f1461015e575b600080fd5b6100d360048036038101906100ce9190610a77565b610266565b005b6100dd610414565b6040516100ea9190610ab3565b60405180910390f35b6100fb61041a565b6040516101089190610c20565b60405180910390f35b61012b60048036038101906101269190610a77565b610569565b604051610139929190610c8c565b60405180910390f35b61015c60048036038101906101579190610df1565b610625565b005b6101666106e5565b6040516101739190610f48565b60405180910390f35b6101846107e0565b6040516101919190610f85565b60405180910390f35b6101a26107fa565b6040516101af9190610ab3565b60405180910390f35b6101d260048036038101906101cd9190610ffe565b610800565b6040516101df9190610f85565b60405180910390f35b61020260048036038101906101fd9190610ffe565b610820565b60405161020f9190610ab3565b60405180910390f35b610232600480360381019061022d9190610ffe565b610838565b60405161023f919061102b565b60405180910390f35b6102506109c0565b60405161025d9190610ab3565b60405180910390f35b600260003373ffffffffffffffffffffffffffffffffffffffff1673ffffffffffffffffffffffffffffffffffffffff16815260200190815260200160002060009054906101000a900460ff16156102f3576040517f08c379a00000000000000000000000000000000000000000000000000000000081526004016102ea90611099565b60405180910390fd5b600080549050811061033a576040517f08c379a000000000000000000000000000000000000000000000000000000000815260040161033190611105565b60405180910390fd5b6000818154811061034e5761034d611125565b5b9060005260206000209060020201600101600081548092919061037090611183565b91905055506001600260003373ffffffffffffffffffffffffffffffffffffffff1673ffffffffffffffffffffffffffffffffffffffff16815260200190815260200160002060006101000a81548160ff02191690831515021790555080600360003373ffffffffffffffffffffffffffffffffffffffff1673ffffffffffffffffffffffffffffffffffffffff1681526020019081526020016000208190555050565b60045481565b60606000808054905067ffffffffffffffff81111561043c5761043b610cc6565b5b60405190808252806020026020018201604052801561046f57816020015b606081526020019060019003908161045a5790505b50905060005b600080549050811015610561576000818154811061049657610495611125565b5b906000526020600020906002020160000180546104b2906111fa565b80601f01602080910402602001604051908101604052809291908181526020018280546104de906111fa565b801561052b5780601f106105005761010080835404028352916020019161052b565b820191906000526020600020905b81548152906001019060200180831161050e57829003601f168201915b505050505082828151811061054357610542611125565b5b6020026020010181905250808061055990611183565b915050610475565b508091505090565b6000818154811061057957600080fd5b906000526020600020906002020160009150905080600001805461059c906111fa565b80601f01602080910402602001604051908101604052809291908181526020018280546105c8906111fa565b80156106155780601f106105ea57610100808354040283529160200191610615565b820191906000526020600020905b8154815290600101906020018083116105f857829003601f168201915b5050505050908060010154905082565b600160009054906101000a900473ffffffffffffffffffffffffffffffffffffffff1673ffffffffffffffffffffffffffffffffffffffff163373ffffffffffffffffffffffffffffffffffffffff161461067f57600080fd5b600060405180604001604052808381526020016000815250908060018154018082558091505060019003906000526020600020906002020160009091909190915060008201518160000190816106d591906113d7565b5060208201518160010155505050565b60606000805480602002602001604051908101604052809291908181526020016000905b828210156107d7578382906000526020600020906002020160405180604001604052908160008201805461073c906111fa565b80601f0160208091040260200160405190810160405280929190818152602001828054610768906111fa565b80156107b55780601f1061078a576101008083540402835291602001916107b5565b820191906000526020600020905b81548152906001019060200180831161079857829003601f168201915b5050505050815260200160018201548152505081526020019060010190610709565b50505050905090565b600060045442101580156107f5575060055442105b905090565b60055481565b60026020528060005260406000206000915054906101000a900460ff1681565b60036020528060005260406000206000915090505481565b6060600260008373ffffffffffffffffffffffffffffffffffffffff1673ffffffffffffffffffffffffffffffffffffffff16815260200190815260200160002060009054906101000a900460ff166108c6576040517f08c379a00000000000000000000000000000000000000000000000000000000081526004016108bd9061151b565b60405180910390fd5b6000600360008473ffffffffffffffffffffffffffffffffffffffff1673ffffffffffffffffffffffffffffffffffffffff1681526020019081526020016000205490506000818154811061091e5761091d611125565b5b9060005260206000209060020201600001805461093a906111fa565b80601f0160208091040260200160405190810160405280929190818152602001828054610966906111fa565b80156109b35780601f10610988576101008083540402835291602001916109b3565b820191906000526020600020905b81548152906001019060200180831161099657829003601f168201915b5050505050915050919050565b6000600454421015610a07576040517f08c379a00000000000000000000000000000000000000000000000000000000081526004016109fe90611587565b60405180910390fd5b6005544210610a195760009050610a2a565b42600554610a2791906115a7565b90505b90565b6000604051905090565b600080fd5b600080fd5b6000819050919050565b610a5481610a41565b8114610a5f57600080fd5b50565b600081359050610a7181610a4b565b92915050565b600060208284031215610a8d57610a8c610a37565b5b6000610a9b84828501610a62565b91505092915050565b610aad81610a41565b82525050565b6000602082019050610ac86000830184610aa4565b92915050565b600081519050919050565b600082825260208201905092915050565b6000819050602082019050919050565b600081519050919050565b600082825260208201905092915050565b60005b83811015610b34578082015181840152602081019050610b19565b60008484015250505050565b6000601f19601f8301169050919050565b6000610b5c82610afa565b610b668185610b05565b9350610b76818560208601610b16565b610b7f81610b40565b840191505092915050565b6000610b968383610b51565b905092915050565b6000602082019050919050565b6000610bb682610ace565b610bc08185610ad9565b935083602082028501610bd285610aea565b8060005b85811015610c0e5784840389528151610bef8582610b8a565b9450610bfa83610b9e565b925060208a01995050600181019050610bd6565b50829750879550505050505092915050565b60006020820190508181036000830152610c3a8184610bab565b905092915050565b600082825260208201905092915050565b6000610c5e82610afa565b610c688185610c42565b9350610c78818560208601610b16565b610c8181610b40565b840191505092915050565b60006040820190508181036000830152610ca68185610c53565b9050610cb56020830184610aa4565b9392505050565b600080fd5b600080fd5b7f4e487b7100000000000000000000000000000000000000000000000000000000600052604160045260246000fd5b610cfe82610b40565b810181811067ffffffffffffffff82111715610d1d57610d1c610cc6565b5b80604052505050565b6000610d30610a2d565b9050610d3c8282610cf5565b919050565b600067ffffffffffffffff821115610d5c57610d5b610cc6565b5b610d6582610b40565b9050602081019050919050565b82818337600083830152505050565b6000610d94610d8f84610d41565b610d26565b905082815260208101848484011115610db057610daf610cc1565b5b610dbb848285610d72565b509392505050565b600082601f830112610dd857610dd7610cbc565b5b8135610de8848260208601610d81565b91505092915050565b600060208284031215610e0757610e06610a37565b5b600082013567ffffffffffffffff811115610e2557610e24610a3c565b5b610e3184828501610dc3565b91505092915050565b600081519050919050565b600082825260208201905092915050565b6000819050602082019050919050565b610e6f81610a41565b82525050565b60006040830160008301518482036000860152610e928282610b51565b9150506020830151610ea76020860182610e66565b508091505092915050565b6000610ebe8383610e75565b905092915050565b6000602082019050919050565b6000610ede82610e3a565b610ee88185610e45565b935083602082028501610efa85610e56565b8060005b85811015610f365784840389528151610f178582610eb2565b9450610f2283610ec6565b925060208a01995050600181019050610efe565b50829750879550505050505092915050565b60006020820190508181036000830152610f628184610ed3565b905092915050565b60008115159050919050565b610f7f81610f6a565b82525050565b6000602082019050610f9a6000830184610f76565b92915050565b600073ffffffffffffffffffffffffffffffffffffffff82169050919050565b6000610fcb82610fa0565b9050919050565b610fdb81610fc0565b8114610fe657600080fd5b50565b600081359050610ff881610fd2565b92915050565b60006020828403121561101457611013610a37565b5b600061102284828501610fe9565b91505092915050565b600060208201905081810360008301526110458184610c53565b905092915050565b7f596f75206861766520616c726561647920766f7465642e000000000000000000600082015250565b6000611083601783610c42565b915061108e8261104d565b602082019050919050565b600060208201905081810360008301526110b281611076565b9050919050565b7f496e76616c69642063616e64696461746520696e6465782e0000000000000000600082015250565b60006110ef601883610c42565b91506110fa826110b9565b602082019050919050565b6000602082019050818103600083015261111e816110e2565b9050919050565b7f4e487b7100000000000000000000000000000000000000000000000000000000600052603260045260246000fd5b7f4e487b7100000000000000000000000000000000000000000000000000000000600052601160045260246000fd5b600061118e82610a41565b91507fffffffffffffffffffffffffffffffffffffffffffffffffffffffffffffffff82036111c0576111bf611154565b5b600182019050919050565b7f4e487b7100000000000000000000000000000000000000000000000000000000600052602260045260246000fd5b6000600282049050600182168061121257607f821691505b602082108103611225576112246111cb565b5b50919050565b60008190508160005260206000209050919050565b60006020601f8301049050919050565b600082821b905092915050565b60006008830261128d7fffffffffffffffffffffffffffffffffffffffffffffffffffffffffffffffff82611250565b6112978683611250565b95508019841693508086168417925050509392505050565b6000819050919050565b60006112d46112cf6112ca84610a41565b6112af565b610a41565b9050919050565b6000819050919050565b6112ee836112b9565b6113026112fa826112db565b84845461125d565b825550505050565b600090565b61131761130a565b6113228184846112e5565b505050565b5b818110156113465761133b60008261130f565b600181019050611328565b5050565b601f82111561138b5761135c8161122b565b61136584611240565b81016020851015611374578190505b61138861138085611240565b830182611327565b50505b505050565b600082821c905092915050565b60006113ae60001984600802611390565b1980831691505092915050565b60006113c7838361139d565b9150826002028217905092915050565b6113e082610afa565b67ffffffffffffffff8111156113f9576113f8610cc6565b5b61140382546111fa565b61140e82828561134a565b600060209050601f831160018114611441576000841561142f578287015190505b61143985826113bb565b8655506114a1565b601f19841661144f8661122b565b60005b8281101561147757848901518255600182019150602085019450602081019050611452565b868310156114945784890151611490601f89168261139d565b8355505b6001600288020188555050505b505050505050565b7f54686973206164647265737320686173206e6f7420636173746564206120766f60008201527f7465207965742e00000000000000000000000000000000000000000000000000602082015250565b6000611505602783610c42565b9150611510826114a9565b604082019050919050565b60006020820190508181036000830152611534816114f8565b9050919050565b7f566f74696e6720686173206e6f742073746172746564207965742e0000000000600082015250565b6000611571601b83610c42565b915061157c8261153b565b602082019050919050565b600060208201905081810360008301526115a081611564565b9050919050565b60006115b282610a41565b91506115bd83610a41565b92508282039050818111156115d5576115d4611154565b5b9291505056fea26469706673582212200f8ec4ff2247e0e0a9d421cde308ecb56ebe1d3b1c29469ae94be738072cdd3764736f6c63430008150033",
  "linkReferences": {},
  "deployedLinkReferences": {}
}